{
  "contractName": "Blockyards",
  "abi": [
    {
      "inputs": [],
      "stateMutability": "nonpayable",
      "type": "constructor"
    },
    {
      "inputs": [
        {
          "internalType": "string",
          "name": "_assetId",
          "type": "string"
        }
      ],
      "name": "get_listing",
      "outputs": [
        {
          "components": [
            {
              "internalType": "enum Blockyards.ListingStatus",
              "name": "status",
              "type": "uint8"
            },
            {
              "internalType": "string",
              "name": "assetId",
              "type": "string"
            },
            {
              "internalType": "uint256",
              "name": "price",
              "type": "uint256"
            },
            {
              "internalType": "address",
              "name": "owner",
              "type": "address"
            },
            {
              "internalType": "string",
              "name": "metadata",
              "type": "string"
            },
            {
              "internalType": "address",
              "name": "seller",
              "type": "address"
            }
          ],
          "internalType": "struct Blockyards.ASSET",
          "name": "",
          "type": "tuple"
        }
      ],
      "stateMutability": "view",
      "type": "function",
      "constant": true
    },
    {
      "inputs": [
        {
          "internalType": "string",
          "name": "_assetId",
          "type": "string"
        },
        {
          "internalType": "uint256",
          "name": "_price",
          "type": "uint256"
        },
        {
          "internalType": "string",
          "name": "_metadata",
          "type": "string"
        }
      ],
      "name": "listASSET",
      "outputs": [],
      "stateMutability": "nonpayable",
      "type": "function"
    },
    {
      "inputs": [
        {
          "internalType": "string",
          "name": "_assetId",
          "type": "string"
        }
      ],
      "name": "buyASSET",
      "outputs": [],
      "stateMutability": "payable",
      "type": "function",
      "payable": true
    },
    {
      "inputs": [
        {
          "internalType": "string",
          "name": "_assetId",
          "type": "string"
        }
      ],
      "name": "delistASSET",
      "outputs": [],
      "stateMutability": "nonpayable",
      "type": "function"
    }
  ],
  "bytecode": "0x6080604052600060025534801561001557600080fd5b50336000806101000a81548173ffffffffffffffffffffffffffffffffffffffff021916908373ffffffffffffffffffffffffffffffffffffffff1602179055506118f4806100656000396000f3fe60806040526004361061003f5760003560e01c80636089b035146100445780636ecc59c51461006057806387e182a91461009d578063b5bdcb50146100c6575b600080fd5b61005e600480360381019061005991906110c4565b6100ef565b005b34801561006c57600080fd5b50610087600480360381019061008291906110c4565b61038a565b60405161009491906112f6565b60405180910390f35b3480156100a957600080fd5b506100c460048036038101906100bf9190611344565b610885565b005b3480156100d257600080fd5b506100ed60048036038101906100e891906110c4565b610a7b565b005b6000600182604051610101919061140b565b908152602001604051809103902090508060050160009054906101000a900473ffffffffffffffffffffffffffffffffffffffff1673ffffffffffffffffffffffffffffffffffffffff163373ffffffffffffffffffffffffffffffffffffffff1614156101a4576040517f08c379a000000000000000000000000000000000000000000000000000000000815260040161019b906114a5565b60405180910390fd5b600060028111156101b8576101b761110d565b5b8160000160009054906101000a900460ff1660028111156101dc576101db61110d565b5b1461021c576040517f08c379a000000000000000000000000000000000000000000000000000000000815260040161021390611537565b60405180910390fd5b8060020154341015610263576040517f08c379a000000000000000000000000000000000000000000000000000000000815260040161025a906115a3565b60405180910390fd5b8060050160009054906101000a900473ffffffffffffffffffffffffffffffffffffffff1673ffffffffffffffffffffffffffffffffffffffff166108fc82600201549081150290604051600060405180830381858888f193505050501580156102d1573d6000803e3d6000fd5b50338160030160006101000a81548173ffffffffffffffffffffffffffffffffffffffff021916908373ffffffffffffffffffffffffffffffffffffffff16021790555060018160000160006101000a81548160ff0219169083600281111561033d5761033c61110d565b5b021790555060008160050160006101000a81548173ffffffffffffffffffffffffffffffffffffffff021916908373ffffffffffffffffffffffffffffffffffffffff1602179055505050565b610392610e53565b60006001836040516103a4919061140b565b90815260200160405180910390206040518060c00160405290816000820160009054906101000a900460ff1660028111156103e2576103e161110d565b5b60028111156103f4576103f361110d565b5b8152602001600182018054610408906115f2565b80601f0160208091040260200160405190810160405280929190818152602001828054610434906115f2565b80156104815780601f1061045657610100808354040283529160200191610481565b820191906000526020600020905b81548152906001019060200180831161046457829003601f168201915b50505050508152602001600282015481526020016003820160009054906101000a900473ffffffffffffffffffffffffffffffffffffffff1673ffffffffffffffffffffffffffffffffffffffff1673ffffffffffffffffffffffffffffffffffffffff1681526020016004820180546104fa906115f2565b80601f0160208091040260200160405190810160405280929190818152602001828054610526906115f2565b80156105735780601f1061054857610100808354040283529160200191610573565b820191906000526020600020905b81548152906001019060200180831161055657829003601f168201915b505050505081526020016005820160009054906101000a900473ffffffffffffffffffffffffffffffffffffffff1673ffffffffffffffffffffffffffffffffffffffff1673ffffffffffffffffffffffffffffffffffffffff16815250509050600060028111156105e8576105e761110d565b5b816000015160028111156105ff576105fe61110d565b5b1461063f576040517f08c379a000000000000000000000000000000000000000000000000000000000815260040161063690611696565b60405180910390fd5b60018360405161064f919061140b565b90815260200160405180910390206040518060c00160405290816000820160009054906101000a900460ff16600281111561068d5761068c61110d565b5b600281111561069f5761069e61110d565b5b81526020016001820180546106b3906115f2565b80601f01602080910402602001604051908101604052809291908181526020018280546106df906115f2565b801561072c5780601f106107015761010080835404028352916020019161072c565b820191906000526020600020905b81548152906001019060200180831161070f57829003601f168201915b50505050508152602001600282015481526020016003820160009054906101000a900473ffffffffffffffffffffffffffffffffffffffff1673ffffffffffffffffffffffffffffffffffffffff1673ffffffffffffffffffffffffffffffffffffffff1681526020016004820180546107a5906115f2565b80601f01602080910402602001604051908101604052809291908181526020018280546107d1906115f2565b801561081e5780601f106107f35761010080835404028352916020019161081e565b820191906000526020600020905b81548152906001019060200180831161080157829003601f168201915b505050505081526020016005820160009054906101000a900473ffffffffffffffffffffffffffffffffffffffff1673ffffffffffffffffffffffffffffffffffffffff1673ffffffffffffffffffffffffffffffffffffffff1681525050915050919050565b60008214156108c9576040517f08c379a00000000000000000000000000000000000000000000000000000000081526004016108c090611702565b60405180910390fd5b60006040518060c00160405280600060028111156108ea576108e961110d565b5b81526020018581526020018481526020013373ffffffffffffffffffffffffffffffffffffffff1681526020018381526020013373ffffffffffffffffffffffffffffffffffffffff1681525090506002600081548092919061094c90611751565b919050555080600185604051610962919061140b565b908152602001604051809103902060008201518160000160006101000a81548160ff0219169083600281111561099b5761099a61110d565b5b021790555060208201518160010190805190602001906109bc929190610ec7565b506040820151816002015560608201518160030160006101000a81548173ffffffffffffffffffffffffffffffffffffffff021916908373ffffffffffffffffffffffffffffffffffffffff1602179055506080820151816004019080519060200190610a2a929190610ec7565b5060a08201518160050160006101000a81548173ffffffffffffffffffffffffffffffffffffffff021916908373ffffffffffffffffffffffffffffffffffffffff16021790555090505050505050565b806000600182604051610a8e919061140b565b90815260200160405180910390206040518060c00160405290816000820160009054906101000a900460ff166002811115610acc57610acb61110d565b5b6002811115610ade57610add61110d565b5b8152602001600182018054610af2906115f2565b80601f0160208091040260200160405190810160405280929190818152602001828054610b1e906115f2565b8015610b6b5780601f10610b4057610100808354040283529160200191610b6b565b820191906000526020600020905b815481529060010190602001808311610b4e57829003601f168201915b50505050508152602001600282015481526020016003820160009054906101000a900473ffffffffffffffffffffffffffffffffffffffff1673ffffffffffffffffffffffffffffffffffffffff1673ffffffffffffffffffffffffffffffffffffffff168152602001600482018054610be4906115f2565b80601f0160208091040260200160405190810160405280929190818152602001828054610c10906115f2565b8015610c5d5780601f10610c3257610100808354040283529160200191610c5d565b820191906000526020600020905b815481529060010190602001808311610c4057829003601f168201915b505050505081526020016005820160009054906101000a900473ffffffffffffffffffffffffffffffffffffffff1673ffffffffffffffffffffffffffffffffffffffff1673ffffffffffffffffffffffffffffffffffffffff168152505090508060a0015173ffffffffffffffffffffffffffffffffffffffff163373ffffffffffffffffffffffffffffffffffffffff161480610d47575060008054906101000a900473ffffffffffffffffffffffffffffffffffffffff1673ffffffffffffffffffffffffffffffffffffffff163373ffffffffffffffffffffffffffffffffffffffff16145b610d86576040517f08c379a0000000000000000000000000000000000000000000000000000000008152600401610d7d9061180c565b60405180910390fd5b6000600184604051610d98919061140b565b9081526020016040518091039020905060006002811115610dbc57610dbb61110d565b5b8160000160009054906101000a900460ff166002811115610de057610ddf61110d565b5b14610e20576040517f08c379a0000000000000000000000000000000000000000000000000000000008152600401610e179061189e565b60405180910390fd5b60028160000160006101000a81548160ff02191690836002811115610e4857610e4761110d565b5b021790555050505050565b6040518060c0016040528060006002811115610e7257610e7161110d565b5b81526020016060815260200160008152602001600073ffffffffffffffffffffffffffffffffffffffff16815260200160608152602001600073ffffffffffffffffffffffffffffffffffffffff1681525090565b828054610ed3906115f2565b90600052602060002090601f016020900481019282610ef55760008555610f3c565b82601f10610f0e57805160ff1916838001178555610f3c565b82800160010185558215610f3c579182015b82811115610f3b578251825591602001919060010190610f20565b5b509050610f499190610f4d565b5090565b5b80821115610f66576000816000905550600101610f4e565b5090565b6000604051905090565b600080fd5b600080fd5b600080fd5b600080fd5b6000601f19601f8301169050919050565b7f4e487b7100000000000000000000000000000000000000000000000000000000600052604160045260246000fd5b610fd182610f88565b810181811067ffffffffffffffff82111715610ff057610fef610f99565b5b80604052505050565b6000611003610f6a565b905061100f8282610fc8565b919050565b600067ffffffffffffffff82111561102f5761102e610f99565b5b61103882610f88565b9050602081019050919050565b82818337600083830152505050565b600061106761106284611014565b610ff9565b90508281526020810184848401111561108357611082610f83565b5b61108e848285611045565b509392505050565b600082601f8301126110ab576110aa610f7e565b5b81356110bb848260208601611054565b91505092915050565b6000602082840312156110da576110d9610f74565b5b600082013567ffffffffffffffff8111156110f8576110f7610f79565b5b61110484828501611096565b91505092915050565b7f4e487b7100000000000000000000000000000000000000000000000000000000600052602160045260246000fd5b6003811061114d5761114c61110d565b5b50565b600081905061115e8261113c565b919050565b600061116e82611150565b9050919050565b61117e81611163565b82525050565b600081519050919050565b600082825260208201905092915050565b60005b838110156111be5780820151818401526020810190506111a3565b838111156111cd576000848401525b50505050565b60006111de82611184565b6111e8818561118f565b93506111f88185602086016111a0565b61120181610f88565b840191505092915050565b6000819050919050565b61121f8161120c565b82525050565b600073ffffffffffffffffffffffffffffffffffffffff82169050919050565b600061125082611225565b9050919050565b61126081611245565b82525050565b600060c08301600083015161127e6000860182611175565b506020830151848203602086015261129682826111d3565b91505060408301516112ab6040860182611216565b5060608301516112be6060860182611257565b50608083015184820360808601526112d682826111d3565b91505060a08301516112eb60a0860182611257565b508091505092915050565b600060208201905081810360008301526113108184611266565b905092915050565b6113218161120c565b811461132c57600080fd5b50565b60008135905061133e81611318565b92915050565b60008060006060848603121561135d5761135c610f74565b5b600084013567ffffffffffffffff81111561137b5761137a610f79565b5b61138786828701611096565b93505060206113988682870161132f565b925050604084013567ffffffffffffffff8111156113b9576113b8610f79565b5b6113c586828701611096565b9150509250925092565b600081905092915050565b60006113e582611184565b6113ef81856113cf565b93506113ff8185602086016111a0565b80840191505092915050565b600061141782846113da565b915081905092915050565b600082825260208201905092915050565b7f73656c6c65722063616e6e6f7420627579207468656972206f776e206173736560008201527f7400000000000000000000000000000000000000000000000000000000000000602082015250565b600061148f602183611422565b915061149a82611433565b604082019050919050565b600060208201905081810360008301526114be81611482565b9050919050565b7f4f6e6c79206163746976652070726f706572746965732063616e20626520626f60008201527f7567687400000000000000000000000000000000000000000000000000000000602082015250565b6000611521602483611422565b915061152c826114c5565b604082019050919050565b6000602082019050818103600083015261155081611514565b9050919050565b7f696e73756666696369656e742066756e64730000000000000000000000000000600082015250565b600061158d601283611422565b915061159882611557565b602082019050919050565b600060208201905081810360008301526115bc81611580565b9050919050565b7f4e487b7100000000000000000000000000000000000000000000000000000000600052602260045260246000fd5b6000600282049050600182168061160a57607f821691505b6020821081141561161e5761161d6115c3565b5b50919050565b7f4f6e6c792070726f70657274696573207769746820616e20616374697665207360008201527f74617475732063616e2062652073686f776e0000000000000000000000000000602082015250565b6000611680603283611422565b915061168b82611624565b604082019050919050565b600060208201905081810360008301526116af81611673565b9050919050565b7f70726963652063616e6e6f742062652030000000000000000000000000000000600082015250565b60006116ec601183611422565b91506116f7826116b6565b602082019050919050565b6000602082019050818103600083015261171b816116df565b9050919050565b7f4e487b7100000000000000000000000000000000000000000000000000000000600052601160045260246000fd5b600061175c8261120c565b91507fffffffffffffffffffffffffffffffffffffffffffffffffffffffffffffffff82141561178f5761178e611722565b5b600182019050919050565b7f6f6e6c792073656c6c65727320616e642061646d696e2068617665207468652060008201527f726967687420746f2064656c6973742061206c69737465642041737365740000602082015250565b60006117f6603e83611422565b91506118018261179a565b604082019050919050565b60006020820190508181036000830152611825816117e9565b9050919050565b7f69662073746174757320213d206163746976655f302c207468656e2063616e2760008201527f742063616e63656c000000000000000000000000000000000000000000000000602082015250565b6000611888602883611422565b91506118938261182c565b604082019050919050565b600060208201905081810360008301526118b78161187b565b905091905056fea26469706673582212200088be18fcb82b443969e1c6ca4d8893686ec4a404563f739b629aac893e411564736f6c63430008090033",
  "immutableReferences": {},
  "source": "// SPDX-License-Identifier: MIT\npragma solidity ^0.8.9;\n//Visibilty modifiers\n//1-public : anyone can call them.\n//2-private: only called within a contract eg another function can call a provate func within a contract\n//3-internal: inheriting contracts can also call this function but not external contracts or functions\n//4-external: only external contracts/wallets can call it. not within the parent.\n//mappings cannot be external\ncontract Blockyards{\n\n    //EVENTS - used to ouput data externally after makings changes. \n    //event ASSET_GOT_LISTED(uint assetId, address seller, address token, uint assetId, uint price  );\n    //event ASSET_SOLD(uint listingId, address buyer, address token, uint assetId, uint price  );\n    //event ASSET_LISTING_CANCELLED(uint listingId, address seller);\n\n    address Admin;\n     //ENUMS- are statuses.\n    enum ListingStatus{active_0,sold_1,cancelled_2}   //options or states of the property/asset. they show as 0,1 or 2 in the blockchain, not by their actual names\n    //mappings are key value pairs.\n    mapping(string => ASSET) private _listings;  //maps asset Id to Asset struct. \n    \n\n    constructor() {\n       Admin = msg.sender;                  //Admin will be the contract deployer address\n    }\n\n    uint private listingId = 0;\n\n    struct ASSET{\n        ListingStatus status;       //current state of the asset i.e {active,sold,cancelled}. \n        string assetId;            //should be unique alpha numeric\n        uint   price;               //in wei:  1 eth equals 1* 10^18 wei\n        address owner;              // owner in possession of the asset\n        string metadata;            //details about the property                \n        address seller;         //store who is selling, will show 0x0000. if not selling\n        //string History;                  //store asset history      \n    }\n\n    //modifiers are priveleged users of some functions\n    modifier isSeller(string memory _assetId){\n        ASSET memory listing = _listings[_assetId];\n        //only seller or admin can delist\n        require(msg.sender == listing.seller || msg.sender == Admin, \"only sellers and admin have the right to delist a listed Asset\");\n        _;\n    }\n\n\n    //GETTER-FUNCTION-returns listing details acc to its assetId.\n    function get_listing(string memory _assetId) public view returns(ASSET memory){\n        ASSET memory listing = _listings[_assetId];\n        require(listing.status == ListingStatus.active_0, \"Only properties with an active status can be shown\");\n        return _listings[_assetId];\n    }\n\n    //FUNCTION-lists properties-emits listed_event\n    function listASSET(string memory _assetId, uint _price, string memory _metadata ) external {\n        require(_price != 0, \"price cannot be 0\");\n        //passing parameters to fill the listing struct.\n        //listing here is a temporary variable of type ASSET.\n        ASSET memory listing = ASSET(ListingStatus.active_0, _assetId, _price, msg.sender, _metadata, msg.sender);\n        listingId++;                        //listing counter starts from 1 and increments further\n        _listings[_assetId] = listing;    //stores asset at the index acc to its assetId   \n    }\n\n    //FUNCTION-buys assets\n    function buyASSET(string memory _assetId) external payable {\n        //storage means the listing variable is not temporary\n        ASSET storage listing = _listings[_assetId];\n        require(msg.sender != listing.seller, \"seller cannot buy their own asset\");\n        require(listing.status == ListingStatus.active_0, \"Only active properties can be bought\");\n        require(msg.value >= listing.price, \"insufficient funds\");\n        \n        payable(listing.seller).transfer(listing.price);        //payment\n        listing.owner = msg.sender;                             //buyer is the owner now\n        listing.status = ListingStatus.sold_1;    //status will be updated \n        listing.seller = 0x0000000000000000000000000000000000000000; //asset has no seller now\n    }\n\n    function delistASSET(string memory _assetId) external isSeller(_assetId) {\n\n        ASSET storage listing = _listings[_assetId];\n        require(listing.status == ListingStatus.active_0, \"if status != active_0, then can't cancel\");\n        listing.status = ListingStatus.cancelled_2;     //listing status of asset set to 2nd state which is cancelled\n    }\n\n}",
  "sourcePath": "/home/runner/BlockchainRealEstate/src/contracts/Blockyards.sol",
  "compiler": {
    "name": "solc",
    "version": "0.8.9+commit.e5eed63a.Emscripten.clang"
  },
  "schemaVersion": "3.4.7",
  "updatedAt": "2022-06-19T17:22:12.710Z",
  "networkType": "ethereum",
  "devdoc": {
    "kind": "dev",
    "methods": {},
    "version": 1
  },
  "userdoc": {
    "kind": "user",
    "methods": {},
    "version": 1
  }
}