{
  "contractName": "Blockyards",
  "abi": [
    {
      "inputs": [],
      "stateMutability": "nonpayable",
      "type": "constructor"
    },
    {
      "anonymous": false,
      "inputs": [
        {
          "indexed": false,
          "internalType": "string",
          "name": "assetId",
          "type": "string"
        },
        {
          "indexed": false,
          "internalType": "address",
          "name": "seller",
          "type": "address"
        },
        {
          "indexed": false,
          "internalType": "address",
          "name": "buyer",
          "type": "address"
        },
        {
          "indexed": false,
          "internalType": "uint256",
          "name": "price",
          "type": "uint256"
        },
        {
          "indexed": false,
          "internalType": "string",
          "name": "metadata",
          "type": "string"
        }
      ],
      "name": "ASSET_BOUGHT",
      "type": "event"
    },
    {
      "anonymous": false,
      "inputs": [
        {
          "indexed": false,
          "internalType": "string",
          "name": "assetId",
          "type": "string"
        },
        {
          "indexed": false,
          "internalType": "address",
          "name": "seller",
          "type": "address"
        },
        {
          "indexed": false,
          "internalType": "uint256",
          "name": "price",
          "type": "uint256"
        },
        {
          "indexed": false,
          "internalType": "string",
          "name": "metadata",
          "type": "string"
        }
      ],
      "name": "ASSET_DELISTED",
      "type": "event"
    },
    {
      "anonymous": false,
      "inputs": [
        {
          "indexed": false,
          "internalType": "string",
          "name": "assetId",
          "type": "string"
        },
        {
          "indexed": false,
          "internalType": "address",
          "name": "seller",
          "type": "address"
        },
        {
          "indexed": false,
          "internalType": "uint256",
          "name": "price",
          "type": "uint256"
        },
        {
          "indexed": false,
          "internalType": "string",
          "name": "metadata",
          "type": "string"
        }
      ],
      "name": "ASSET_LISTED",
      "type": "event"
    },
    {
      "inputs": [
        {
          "internalType": "string",
          "name": "_assetId",
          "type": "string"
        }
      ],
      "name": "get_listing",
      "outputs": [
        {
          "components": [
            {
              "internalType": "enum Blockyards.ListingStatus",
              "name": "status",
              "type": "uint8"
            },
            {
              "internalType": "string",
              "name": "assetId",
              "type": "string"
            },
            {
              "internalType": "uint256",
              "name": "price",
              "type": "uint256"
            },
            {
              "internalType": "address",
              "name": "owner",
              "type": "address"
            },
            {
              "internalType": "string",
              "name": "metadata",
              "type": "string"
            },
            {
              "internalType": "address",
              "name": "seller",
              "type": "address"
            }
          ],
          "internalType": "struct Blockyards.ASSET",
          "name": "",
          "type": "tuple"
        }
      ],
      "stateMutability": "view",
      "type": "function",
      "constant": true
    },
    {
      "inputs": [
        {
          "internalType": "string",
          "name": "_assetId",
          "type": "string"
        },
        {
          "internalType": "uint256",
          "name": "_price",
          "type": "uint256"
        },
        {
          "internalType": "string",
          "name": "_metadata",
          "type": "string"
        }
      ],
      "name": "listASSET",
      "outputs": [],
      "stateMutability": "nonpayable",
      "type": "function"
    },
    {
      "inputs": [
        {
          "internalType": "string",
          "name": "_assetId",
          "type": "string"
        }
      ],
      "name": "buyASSET",
      "outputs": [],
      "stateMutability": "payable",
      "type": "function",
      "payable": true
    },
    {
      "inputs": [
        {
          "internalType": "string",
          "name": "_assetId",
          "type": "string"
        }
      ],
      "name": "delistASSET",
      "outputs": [],
      "stateMutability": "nonpayable",
      "type": "function"
    }
  ],
  "bytecode": "0x6080604052600060025534801561001557600080fd5b50336000806101000a81548173ffffffffffffffffffffffffffffffffffffffff021916908373ffffffffffffffffffffffffffffffffffffffff160217905550611c6d806100656000396000f3fe60806040526004361061003f5760003560e01c80636089b035146100445780636ecc59c51461006057806387e182a91461009d578063b5bdcb50146100c6575b600080fd5b61005e6004803603810190610059919061120f565b6100ef565b005b34801561006c57600080fd5b506100876004803603810190610082919061120f565b6103f7565b6040516100949190611441565b60405180910390f35b3480156100a957600080fd5b506100c460048036038101906100bf919061148f565b610918565b005b3480156100d257600080fd5b506100ed60048036038101906100e8919061120f565b610b5b565b005b60006001826040516101019190611556565b908152602001604051809103902090508060050160009054906101000a900473ffffffffffffffffffffffffffffffffffffffff1673ffffffffffffffffffffffffffffffffffffffff163373ffffffffffffffffffffffffffffffffffffffff1614156101a4576040517f08c379a000000000000000000000000000000000000000000000000000000000815260040161019b906115f0565b60405180910390fd5b600060028111156101b8576101b7611258565b5b8160000160009054906101000a900460ff1660028111156101dc576101db611258565b5b1461021c576040517f08c379a000000000000000000000000000000000000000000000000000000000815260040161021390611682565b60405180910390fd5b8060020154341015610263576040517f08c379a000000000000000000000000000000000000000000000000000000000815260040161025a906116ee565b60405180910390fd5b8060050160009054906101000a900473ffffffffffffffffffffffffffffffffffffffff1673ffffffffffffffffffffffffffffffffffffffff166108fc82600201549081150290604051600060405180830381858888f193505050501580156102d1573d6000803e3d6000fd5b50338160030160006101000a81548173ffffffffffffffffffffffffffffffffffffffff021916908373ffffffffffffffffffffffffffffffffffffffff16021790555060018160000160006101000a81548160ff0219169083600281111561033d5761033c611258565b5b021790555060008160050160006101000a81548173ffffffffffffffffffffffffffffffffffffffff021916908373ffffffffffffffffffffffffffffffffffffffff1602179055507f756106ea5112e2c4f7f4f795920b5297cdeabb5eadec8900be9fccb750f60e66816001018260050160009054906101000a900473ffffffffffffffffffffffffffffffffffffffff16338460020154856004016040516103eb959493929190611822565b60405180910390a15050565b6103ff610f9e565b60006001836040516104119190611556565b90815260200160405180910390206040518060c00160405290816000820160009054906101000a900460ff16600281111561044f5761044e611258565b5b600281111561046157610460611258565b5b81526020016001820180546104759061173d565b80601f01602080910402602001604051908101604052809291908181526020018280546104a19061173d565b80156104ee5780601f106104c3576101008083540402835291602001916104ee565b820191906000526020600020905b8154815290600101906020018083116104d157829003601f168201915b50505050508152602001600282015481526020016003820160009054906101000a900473ffffffffffffffffffffffffffffffffffffffff1673ffffffffffffffffffffffffffffffffffffffff1673ffffffffffffffffffffffffffffffffffffffff1681526020016004820180546105679061173d565b80601f01602080910402602001604051908101604052809291908181526020018280546105939061173d565b80156105e05780601f106105b5576101008083540402835291602001916105e0565b820191906000526020600020905b8154815290600101906020018083116105c357829003601f168201915b505050505081526020016005820160009054906101000a900473ffffffffffffffffffffffffffffffffffffffff1673ffffffffffffffffffffffffffffffffffffffff1673ffffffffffffffffffffffffffffffffffffffff16815250509050604051602001610650906118a9565b60405160208183030381529060405280519060200120816020015160405160200161067b9190611556565b6040516020818303038152906040528051906020012014156106d2576040517f08c379a00000000000000000000000000000000000000000000000000000000081526004016106c990611930565b60405180910390fd5b6001836040516106e29190611556565b90815260200160405180910390206040518060c00160405290816000820160009054906101000a900460ff1660028111156107205761071f611258565b5b600281111561073257610731611258565b5b81526020016001820180546107469061173d565b80601f01602080910402602001604051908101604052809291908181526020018280546107729061173d565b80156107bf5780601f10610794576101008083540402835291602001916107bf565b820191906000526020600020905b8154815290600101906020018083116107a257829003601f168201915b50505050508152602001600282015481526020016003820160009054906101000a900473ffffffffffffffffffffffffffffffffffffffff1673ffffffffffffffffffffffffffffffffffffffff1673ffffffffffffffffffffffffffffffffffffffff1681526020016004820180546108389061173d565b80601f01602080910402602001604051908101604052809291908181526020018280546108649061173d565b80156108b15780601f10610886576101008083540402835291602001916108b1565b820191906000526020600020905b81548152906001019060200180831161089457829003601f168201915b505050505081526020016005820160009054906101000a900473ffffffffffffffffffffffffffffffffffffffff1673ffffffffffffffffffffffffffffffffffffffff1673ffffffffffffffffffffffffffffffffffffffff1681525050915050919050565b600082141561095c576040517f08c379a00000000000000000000000000000000000000000000000000000000081526004016109539061199c565b60405180910390fd5b60006040518060c001604052806000600281111561097d5761097c611258565b5b81526020018581526020018481526020013373ffffffffffffffffffffffffffffffffffffffff1681526020018381526020013373ffffffffffffffffffffffffffffffffffffffff168152509050600260008154809291906109df906119eb565b9190505550806001856040516109f59190611556565b908152602001604051809103902060008201518160000160006101000a81548160ff02191690836002811115610a2e57610a2d611258565b5b02179055506020820151816001019080519060200190610a4f929190611012565b506040820151816002015560608201518160030160006101000a81548173ffffffffffffffffffffffffffffffffffffffff021916908373ffffffffffffffffffffffffffffffffffffffff1602179055506080820151816004019080519060200190610abd929190611012565b5060a08201518160050160006101000a81548173ffffffffffffffffffffffffffffffffffffffff021916908373ffffffffffffffffffffffffffffffffffffffff1602179055509050507f8c43120aaef8101203d511f35cde7e7aa18f0f847c7a592fc97e6aece8e0c9ea81602001518260a0015183604001518460800151604051610b4d9493929190611a6d565b60405180910390a150505050565b806000600182604051610b6e9190611556565b90815260200160405180910390206040518060c00160405290816000820160009054906101000a900460ff166002811115610bac57610bab611258565b5b6002811115610bbe57610bbd611258565b5b8152602001600182018054610bd29061173d565b80601f0160208091040260200160405190810160405280929190818152602001828054610bfe9061173d565b8015610c4b5780601f10610c2057610100808354040283529160200191610c4b565b820191906000526020600020905b815481529060010190602001808311610c2e57829003601f168201915b50505050508152602001600282015481526020016003820160009054906101000a900473ffffffffffffffffffffffffffffffffffffffff1673ffffffffffffffffffffffffffffffffffffffff1673ffffffffffffffffffffffffffffffffffffffff168152602001600482018054610cc49061173d565b80601f0160208091040260200160405190810160405280929190818152602001828054610cf09061173d565b8015610d3d5780601f10610d1257610100808354040283529160200191610d3d565b820191906000526020600020905b815481529060010190602001808311610d2057829003601f168201915b505050505081526020016005820160009054906101000a900473ffffffffffffffffffffffffffffffffffffffff1673ffffffffffffffffffffffffffffffffffffffff1673ffffffffffffffffffffffffffffffffffffffff168152505090508060a0015173ffffffffffffffffffffffffffffffffffffffff163373ffffffffffffffffffffffffffffffffffffffff161480610e27575060008054906101000a900473ffffffffffffffffffffffffffffffffffffffff1673ffffffffffffffffffffffffffffffffffffffff163373ffffffffffffffffffffffffffffffffffffffff16145b610e66576040517f08c379a0000000000000000000000000000000000000000000000000000000008152600401610e5d90611b32565b60405180910390fd5b6000600184604051610e789190611556565b9081526020016040518091039020905060006002811115610e9c57610e9b611258565b5b8160000160009054906101000a900460ff166002811115610ec057610ebf611258565b5b14610f00576040517f08c379a0000000000000000000000000000000000000000000000000000000008152600401610ef790611bc4565b60405180910390fd5b60028160000160006101000a81548160ff02191690836002811115610f2857610f27611258565b5b02179055507f361343be51c9809aeea12fadec3a2fa4db76d2de239fb9624bb99302330c4e86816001018260050160009054906101000a900473ffffffffffffffffffffffffffffffffffffffff16836002015484600401604051610f909493929190611be4565b60405180910390a150505050565b6040518060c0016040528060006002811115610fbd57610fbc611258565b5b81526020016060815260200160008152602001600073ffffffffffffffffffffffffffffffffffffffff16815260200160608152602001600073ffffffffffffffffffffffffffffffffffffffff1681525090565b82805461101e9061173d565b90600052602060002090601f0160209004810192826110405760008555611087565b82601f1061105957805160ff1916838001178555611087565b82800160010185558215611087579182015b8281111561108657825182559160200191906001019061106b565b5b5090506110949190611098565b5090565b5b808211156110b1576000816000905550600101611099565b5090565b6000604051905090565b600080fd5b600080fd5b600080fd5b600080fd5b6000601f19601f8301169050919050565b7f4e487b7100000000000000000000000000000000000000000000000000000000600052604160045260246000fd5b61111c826110d3565b810181811067ffffffffffffffff8211171561113b5761113a6110e4565b5b80604052505050565b600061114e6110b5565b905061115a8282611113565b919050565b600067ffffffffffffffff82111561117a576111796110e4565b5b611183826110d3565b9050602081019050919050565b82818337600083830152505050565b60006111b26111ad8461115f565b611144565b9050828152602081018484840111156111ce576111cd6110ce565b5b6111d9848285611190565b509392505050565b600082601f8301126111f6576111f56110c9565b5b813561120684826020860161119f565b91505092915050565b600060208284031215611225576112246110bf565b5b600082013567ffffffffffffffff811115611243576112426110c4565b5b61124f848285016111e1565b91505092915050565b7f4e487b7100000000000000000000000000000000000000000000000000000000600052602160045260246000fd5b6003811061129857611297611258565b5b50565b60008190506112a982611287565b919050565b60006112b98261129b565b9050919050565b6112c9816112ae565b82525050565b600081519050919050565b600082825260208201905092915050565b60005b838110156113095780820151818401526020810190506112ee565b83811115611318576000848401525b50505050565b6000611329826112cf565b61133381856112da565b93506113438185602086016112eb565b61134c816110d3565b840191505092915050565b6000819050919050565b61136a81611357565b82525050565b600073ffffffffffffffffffffffffffffffffffffffff82169050919050565b600061139b82611370565b9050919050565b6113ab81611390565b82525050565b600060c0830160008301516113c960008601826112c0565b50602083015184820360208601526113e1828261131e565b91505060408301516113f66040860182611361565b50606083015161140960608601826113a2565b5060808301518482036080860152611421828261131e565b91505060a083015161143660a08601826113a2565b508091505092915050565b6000602082019050818103600083015261145b81846113b1565b905092915050565b61146c81611357565b811461147757600080fd5b50565b60008135905061148981611463565b92915050565b6000806000606084860312156114a8576114a76110bf565b5b600084013567ffffffffffffffff8111156114c6576114c56110c4565b5b6114d2868287016111e1565b93505060206114e38682870161147a565b925050604084013567ffffffffffffffff811115611504576115036110c4565b5b611510868287016111e1565b9150509250925092565b600081905092915050565b6000611530826112cf565b61153a818561151a565b935061154a8185602086016112eb565b80840191505092915050565b60006115628284611525565b915081905092915050565b600082825260208201905092915050565b7f73656c6c65722063616e6e6f7420627579207468656972206f776e206173736560008201527f7400000000000000000000000000000000000000000000000000000000000000602082015250565b60006115da60218361156d565b91506115e58261157e565b604082019050919050565b60006020820190508181036000830152611609816115cd565b9050919050565b7f4f6e6c79206163746976652070726f706572746965732063616e20626520626f60008201527f756768742e200000000000000000000000000000000000000000000000000000602082015250565b600061166c60268361156d565b915061167782611610565b604082019050919050565b6000602082019050818103600083015261169b8161165f565b9050919050565b7f696e73756666696369656e742066756e64730000000000000000000000000000600082015250565b60006116d860128361156d565b91506116e3826116a2565b602082019050919050565b60006020820190508181036000830152611707816116cb565b9050919050565b7f4e487b7100000000000000000000000000000000000000000000000000000000600052602260045260246000fd5b6000600282049050600182168061175557607f821691505b602082108114156117695761176861170e565b5b50919050565b60008190508160005260206000209050919050565b600081546117918161173d565b61179b818661156d565b945060018216600081146117b657600181146117c8576117fb565b60ff19831686526020860193506117fb565b6117d18561176f565b60005b838110156117f3578154818901526001820191506020810190506117d4565b808801955050505b50505092915050565b61180d81611390565b82525050565b61181c81611357565b82525050565b600060a082019050818103600083015261183c8188611784565b905061184b6020830187611804565b6118586040830186611804565b6118656060830185611813565b81810360808301526118778184611784565b90509695505050505050565b50565b600061189360008361151a565b915061189e82611883565b600082019050919050565b60006118b482611886565b9150819050919050565b7f506c65617365206d616b65207375726520746869732070726f7065727479206960008201527f73206c6973746564000000000000000000000000000000000000000000000000602082015250565b600061191a60288361156d565b9150611925826118be565b604082019050919050565b600060208201905081810360008301526119498161190d565b9050919050565b7f70726963652063616e6e6f742062652030000000000000000000000000000000600082015250565b600061198660118361156d565b915061199182611950565b602082019050919050565b600060208201905081810360008301526119b581611979565b9050919050565b7f4e487b7100000000000000000000000000000000000000000000000000000000600052601160045260246000fd5b60006119f682611357565b91507fffffffffffffffffffffffffffffffffffffffffffffffffffffffffffffffff821415611a2957611a286119bc565b5b600182019050919050565b6000611a3f826112cf565b611a49818561156d565b9350611a598185602086016112eb565b611a62816110d3565b840191505092915050565b60006080820190508181036000830152611a878187611a34565b9050611a966020830186611804565b611aa36040830185611813565b8181036060830152611ab58184611a34565b905095945050505050565b7f6f6e6c792073656c6c65727320616e642061646d696e2068617665207468652060008201527f726967687420746f2064656c6973742061206c69737465642041737365740000602082015250565b6000611b1c603e8361156d565b9150611b2782611ac0565b604082019050919050565b60006020820190508181036000830152611b4b81611b0f565b9050919050565b7f69662073746174757320213d206163746976655f302c207468656e2063616e2760008201527f742063616e63656c000000000000000000000000000000000000000000000000602082015250565b6000611bae60288361156d565b9150611bb982611b52565b604082019050919050565b60006020820190508181036000830152611bdd81611ba1565b9050919050565b60006080820190508181036000830152611bfe8187611784565b9050611c0d6020830186611804565b611c1a6040830185611813565b8181036060830152611c2c8184611784565b90509594505050505056fea26469706673582212203f45c094c50adf0aac787c3c9d93ca41338d168bbd26215f00acddba757ff53264736f6c63430008090033",
  "immutableReferences": {},
  "source": "// SPDX-License-Identifier: MIT\npragma solidity ^0.8.9;\n//Visibilty modifiers\n//1-public : anyone can call them.\n//2-private: only called within a contract eg another function can call a provate func within a contract\n//3-internal: inheriting contracts can also call this function but not external contracts or functions\n//4-external: only external contracts/wallets can call it. not within the parent.\n//mappings cannot be external\ncontract Blockyards{\n\n    //EVENTS - used to ouput data externally after makings changes. \n    event ASSET_LISTED(\n        string assetId,\n        address seller,\n        uint price,\n        string metadata  \n    );\n    \n    event ASSET_BOUGHT(\n        string assetId,\n        address seller,\n        address buyer,\n        uint price,\n        string metadata\n      );\n\n    event ASSET_DELISTED(\n        string assetId, \n        address seller,\n        uint price,\n        string metadata\n    );\n\n    address Admin;\n     //ENUMS- are statuses.\n    enum ListingStatus{active_0,sold_1,cancelled_2}   //options or states of the property/asset. they show as 0,1 or 2 in the blockchain, not by their actual names\n    //mappings are key value pairs.\n    mapping(string => ASSET) private _listings;  //maps asset Id to Asset struct. \n    \n\n    constructor() {\n       Admin = msg.sender;                  //Admin will be the contract deployer address\n    }\n\n    uint private listingId = 0;\n\n    struct ASSET{\n        ListingStatus status;       //current state of the asset i.e {active,sold,cancelled}. \n        string assetId;            //should be unique alpha numeric\n        uint   price;               //in wei:  1 eth equals 1* 10^18 wei\n        address owner;              // owner in possession of the asset\n        string metadata;            //details about the property                \n        address seller;         //store who is selling, will show 0x0000. if not selling\n        //string History;                  //store asset history      \n    }\n\n    //modifiers are priveleged users of some functions\n    modifier isSeller(string memory _assetId){\n        ASSET memory listing = _listings[_assetId];\n        //only seller or admin can delist\n        require(msg.sender == listing.seller || msg.sender == Admin, \"only sellers and admin have the right to delist a listed Asset\");\n        _;\n    }\n\n    //GETTER-FUNCTION-returns listing details acc to its assetId.\n    function get_listing(string memory _assetId) public view returns(ASSET memory){\n        ASSET memory listing = _listings[_assetId];\n        require(keccak256(abi.encodePacked((listing.assetId))) != keccak256(abi.encodePacked((''))), \"Please make sure this property is listed\");\n        //require(listing.status != ListingStatus.active_0, \"Only properties with an active status can be shown\");\n        return _listings[_assetId];\n    }\n\n    //FUNCTION-lists properties-emits listed_event\n    function listASSET(string memory _assetId, uint _price, string memory _metadata ) external {\n        require(_price != 0, \"price cannot be 0\");\n        //passing parameters to fill the listing struct.\n        //listing here is a temporary variable of type ASSET.\n        ASSET memory listing = ASSET(ListingStatus.active_0, _assetId, _price, msg.sender, _metadata, msg.sender);\n        listingId++;                        //listing counter starts from 1 and increments further\n        _listings[_assetId] = listing;    //stores asset at the index acc to its assetId   \n\n        emit ASSET_LISTED(\n            listing.assetId,\n            listing.seller,\n            listing.price,\n            listing.metadata \n        );\n    }\n\n    //FUNCTION-buys assets\n    function buyASSET(string memory _assetId) external payable {\n        //storage means the listing variable is not temporary\n        ASSET storage listing = _listings[_assetId];\n        require(msg.sender != listing.seller, \"seller cannot buy their own asset\");\n        require(listing.status == ListingStatus.active_0, \"Only active properties can be bought. \");\n        require(msg.value >= listing.price, \"insufficient funds\");\n        \n        payable(listing.seller).transfer(listing.price);        //payment\n        listing.owner = msg.sender;                             //buyer is the owner now\n        listing.status = ListingStatus.sold_1;    //status will be updated \n        listing.seller = 0x0000000000000000000000000000000000000000; //asset has no seller now\n\n        emit ASSET_BOUGHT(\n            listing.assetId,\n            listing.seller,\n            msg.sender,\n            listing.price,\n            listing.metadata \n        );\n    }\n\n    function delistASSET(string memory _assetId) external isSeller(_assetId) {\n\n        ASSET storage listing = _listings[_assetId];\n        require(listing.status == ListingStatus.active_0, \"if status != active_0, then can't cancel\");\n        listing.status = ListingStatus.cancelled_2;     //listing status of asset set to 2nd state which is cancelled\n\n        emit ASSET_DELISTED(\n            listing.assetId,\n            listing.seller,\n            listing.price,\n            listing.metadata \n        );\n    }\n\n}",
  "sourcePath": "/home/runner/BlockchainRealEstate/src/contracts/Blockyards.sol",
  "compiler": {
    "name": "solc",
    "version": "0.8.9+commit.e5eed63a.Emscripten.clang"
  },
  "schemaVersion": "3.4.7",
  "updatedAt": "2022-06-20T21:50:37.589Z",
  "networkType": "ethereum",
  "devdoc": {
    "kind": "dev",
    "methods": {},
    "version": 1
  },
  "userdoc": {
    "kind": "user",
    "methods": {},
    "version": 1
  }
}