{
  "contractName": "Blockyards",
  "abi": [
    {
      "inputs": [],
      "stateMutability": "nonpayable",
      "type": "constructor"
    },
    {
      "inputs": [
        {
          "internalType": "uint256",
          "name": "_assetId",
          "type": "uint256"
        }
      ],
      "name": "get_listing",
      "outputs": [
        {
          "components": [
            {
              "internalType": "enum Blockyards.ListingStatus",
              "name": "status",
              "type": "uint8"
            },
            {
              "internalType": "uint256",
              "name": "assetId",
              "type": "uint256"
            },
            {
              "internalType": "uint256",
              "name": "price",
              "type": "uint256"
            },
            {
              "internalType": "address",
              "name": "owner",
              "type": "address"
            },
            {
              "internalType": "string",
              "name": "metadata",
              "type": "string"
            },
            {
              "internalType": "address",
              "name": "seller",
              "type": "address"
            }
          ],
          "internalType": "struct Blockyards.ASSET",
          "name": "",
          "type": "tuple"
        }
      ],
      "stateMutability": "view",
      "type": "function",
      "constant": true
    },
    {
      "inputs": [
        {
          "internalType": "uint256",
          "name": "_assetId",
          "type": "uint256"
        },
        {
          "internalType": "uint256",
          "name": "_price",
          "type": "uint256"
        },
        {
          "internalType": "string",
          "name": "_metadata",
          "type": "string"
        }
      ],
      "name": "listASSET",
      "outputs": [],
      "stateMutability": "nonpayable",
      "type": "function"
    },
    {
      "inputs": [
        {
          "internalType": "uint256",
          "name": "_assetId",
          "type": "uint256"
        }
      ],
      "name": "buyASSET",
      "outputs": [],
      "stateMutability": "payable",
      "type": "function",
      "payable": true
    },
    {
      "inputs": [
        {
          "internalType": "uint256",
          "name": "_assetId",
          "type": "uint256"
        }
      ],
      "name": "delistASSET",
      "outputs": [],
      "stateMutability": "nonpayable",
      "type": "function"
    }
  ],
  "bytecode": "0x6080604052600060025534801561001557600080fd5b50336000806101000a81548173ffffffffffffffffffffffffffffffffffffffff021916908373ffffffffffffffffffffffffffffffffffffffff16021790555061174f806100656000396000f3fe60806040526004361061003f5760003560e01c80633ee9b6b3146100445780639342f9141461006d578063dc1bbf9c14610096578063fed69702146100b2575b600080fd5b34801561005057600080fd5b5061006b60048036038101906100669190610e0f565b6100ef565b005b34801561007957600080fd5b50610094600480360381019061008f9190610f82565b610429565b005b6100b060048036038101906100ab9190610e0f565b610601565b005b3480156100be57600080fd5b506100d960048036038101906100d49190610e0f565b610891565b6040516100e691906111c9565b60405180910390f35b806000600160008381526020019081526020016000206040518060c00160405290816000820160009054906101000a900460ff16600281111561013557610134610ff1565b5b600281111561014757610146610ff1565b5b815260200160018201548152602001600282015481526020016003820160009054906101000a900473ffffffffffffffffffffffffffffffffffffffff1673ffffffffffffffffffffffffffffffffffffffff1673ffffffffffffffffffffffffffffffffffffffff1681526020016004820180546101c59061121a565b80601f01602080910402602001604051908101604052809291908181526020018280546101f19061121a565b801561023e5780601f106102135761010080835404028352916020019161023e565b820191906000526020600020905b81548152906001019060200180831161022157829003601f168201915b505050505081526020016005820160009054906101000a900473ffffffffffffffffffffffffffffffffffffffff1673ffffffffffffffffffffffffffffffffffffffff1673ffffffffffffffffffffffffffffffffffffffff168152505090508060a0015173ffffffffffffffffffffffffffffffffffffffff163373ffffffffffffffffffffffffffffffffffffffff161480610328575060008054906101000a900473ffffffffffffffffffffffffffffffffffffffff1673ffffffffffffffffffffffffffffffffffffffff163373ffffffffffffffffffffffffffffffffffffffff16145b610367576040517f08c379a000000000000000000000000000000000000000000000000000000000815260040161035e906112cf565b60405180910390fd5b60006001600085815260200190815260200160002090506000600281111561039257610391610ff1565b5b8160000160009054906101000a900460ff1660028111156103b6576103b5610ff1565b5b146103f6576040517f08c379a00000000000000000000000000000000000000000000000000000000081526004016103ed90611361565b60405180910390fd5b60028160000160006101000a81548160ff0219169083600281111561041e5761041d610ff1565b5b021790555050505050565b600082141561046d576040517f08c379a0000000000000000000000000000000000000000000000000000000008152600401610464906113cd565b60405180910390fd5b60006040518060c001604052806000600281111561048e5761048d610ff1565b5b81526020018581526020018481526020013373ffffffffffffffffffffffffffffffffffffffff1681526020018381526020013373ffffffffffffffffffffffffffffffffffffffff168152509050600260008154809291906104f09061141c565b9190505550806001600086815260200190815260200160002060008201518160000160006101000a81548160ff0219169083600281111561053457610533610ff1565b5b0217905550602082015181600101556040820151816002015560608201518160030160006101000a81548173ffffffffffffffffffffffffffffffffffffffff021916908373ffffffffffffffffffffffffffffffffffffffff16021790555060808201518160040190805190602001906105b0929190610cae565b5060a08201518160050160006101000a81548173ffffffffffffffffffffffffffffffffffffffff021916908373ffffffffffffffffffffffffffffffffffffffff16021790555090505050505050565b60006001600083815260200190815260200160002090508060050160009054906101000a900473ffffffffffffffffffffffffffffffffffffffff1673ffffffffffffffffffffffffffffffffffffffff163373ffffffffffffffffffffffffffffffffffffffff1614156106ab576040517f08c379a00000000000000000000000000000000000000000000000000000000081526004016106a2906114d7565b60405180910390fd5b600060028111156106bf576106be610ff1565b5b8160000160009054906101000a900460ff1660028111156106e3576106e2610ff1565b5b14610723576040517f08c379a000000000000000000000000000000000000000000000000000000000815260040161071a90611569565b60405180910390fd5b806002015434101561076a576040517f08c379a0000000000000000000000000000000000000000000000000000000008152600401610761906115d5565b60405180910390fd5b8060050160009054906101000a900473ffffffffffffffffffffffffffffffffffffffff1673ffffffffffffffffffffffffffffffffffffffff166108fc82600201549081150290604051600060405180830381858888f193505050501580156107d8573d6000803e3d6000fd5b50338160030160006101000a81548173ffffffffffffffffffffffffffffffffffffffff021916908373ffffffffffffffffffffffffffffffffffffffff16021790555060018160000160006101000a81548160ff0219169083600281111561084457610843610ff1565b5b021790555060008160050160006101000a81548173ffffffffffffffffffffffffffffffffffffffff021916908373ffffffffffffffffffffffffffffffffffffffff1602179055505050565b610899610d34565b6000600160008481526020019081526020016000206040518060c00160405290816000820160009054906101000a900460ff1660028111156108de576108dd610ff1565b5b60028111156108f0576108ef610ff1565b5b815260200160018201548152602001600282015481526020016003820160009054906101000a900473ffffffffffffffffffffffffffffffffffffffff1673ffffffffffffffffffffffffffffffffffffffff1673ffffffffffffffffffffffffffffffffffffffff16815260200160048201805461096e9061121a565b80601f016020809104026020016040519081016040528092919081815260200182805461099a9061121a565b80156109e75780601f106109bc576101008083540402835291602001916109e7565b820191906000526020600020905b8154815290600101906020018083116109ca57829003601f168201915b505050505081526020016005820160009054906101000a900473ffffffffffffffffffffffffffffffffffffffff1673ffffffffffffffffffffffffffffffffffffffff1673ffffffffffffffffffffffffffffffffffffffff16815250509050600081602001511415610a90576040517f08c379a0000000000000000000000000000000000000000000000000000000008152600401610a8790611667565b60405180910390fd5b60006002811115610aa457610aa3610ff1565b5b81600001516002811115610abb57610aba610ff1565b5b14610afb576040517f08c379a0000000000000000000000000000000000000000000000000000000008152600401610af2906116f9565b60405180910390fd5b600160008481526020019081526020016000206040518060c00160405290816000820160009054906101000a900460ff166002811115610b3e57610b3d610ff1565b5b6002811115610b5057610b4f610ff1565b5b815260200160018201548152602001600282015481526020016003820160009054906101000a900473ffffffffffffffffffffffffffffffffffffffff1673ffffffffffffffffffffffffffffffffffffffff1673ffffffffffffffffffffffffffffffffffffffff168152602001600482018054610bce9061121a565b80601f0160208091040260200160405190810160405280929190818152602001828054610bfa9061121a565b8015610c475780601f10610c1c57610100808354040283529160200191610c47565b820191906000526020600020905b815481529060010190602001808311610c2a57829003601f168201915b505050505081526020016005820160009054906101000a900473ffffffffffffffffffffffffffffffffffffffff1673ffffffffffffffffffffffffffffffffffffffff1673ffffffffffffffffffffffffffffffffffffffff1681525050915050919050565b828054610cba9061121a565b90600052602060002090601f016020900481019282610cdc5760008555610d23565b82601f10610cf557805160ff1916838001178555610d23565b82800160010185558215610d23579182015b82811115610d22578251825591602001919060010190610d07565b5b509050610d309190610da8565b5090565b6040518060c0016040528060006002811115610d5357610d52610ff1565b5b81526020016000815260200160008152602001600073ffffffffffffffffffffffffffffffffffffffff16815260200160608152602001600073ffffffffffffffffffffffffffffffffffffffff1681525090565b5b80821115610dc1576000816000905550600101610da9565b5090565b6000604051905090565b600080fd5b600080fd5b6000819050919050565b610dec81610dd9565b8114610df757600080fd5b50565b600081359050610e0981610de3565b92915050565b600060208284031215610e2557610e24610dcf565b5b6000610e3384828501610dfa565b91505092915050565b600080fd5b600080fd5b6000601f19601f8301169050919050565b7f4e487b7100000000000000000000000000000000000000000000000000000000600052604160045260246000fd5b610e8f82610e46565b810181811067ffffffffffffffff82111715610eae57610ead610e57565b5b80604052505050565b6000610ec1610dc5565b9050610ecd8282610e86565b919050565b600067ffffffffffffffff821115610eed57610eec610e57565b5b610ef682610e46565b9050602081019050919050565b82818337600083830152505050565b6000610f25610f2084610ed2565b610eb7565b905082815260208101848484011115610f4157610f40610e41565b5b610f4c848285610f03565b509392505050565b600082601f830112610f6957610f68610e3c565b5b8135610f79848260208601610f12565b91505092915050565b600080600060608486031215610f9b57610f9a610dcf565b5b6000610fa986828701610dfa565b9350506020610fba86828701610dfa565b925050604084013567ffffffffffffffff811115610fdb57610fda610dd4565b5b610fe786828701610f54565b9150509250925092565b7f4e487b7100000000000000000000000000000000000000000000000000000000600052602160045260246000fd5b6003811061103157611030610ff1565b5b50565b600081905061104282611020565b919050565b600061105282611034565b9050919050565b61106281611047565b82525050565b61107181610dd9565b82525050565b600073ffffffffffffffffffffffffffffffffffffffff82169050919050565b60006110a282611077565b9050919050565b6110b281611097565b82525050565b600081519050919050565b600082825260208201905092915050565b60005b838110156110f25780820151818401526020810190506110d7565b83811115611101576000848401525b50505050565b6000611112826110b8565b61111c81856110c3565b935061112c8185602086016110d4565b61113581610e46565b840191505092915050565b600060c0830160008301516111586000860182611059565b50602083015161116b6020860182611068565b50604083015161117e6040860182611068565b50606083015161119160608601826110a9565b50608083015184820360808601526111a98282611107565b91505060a08301516111be60a08601826110a9565b508091505092915050565b600060208201905081810360008301526111e38184611140565b905092915050565b7f4e487b7100000000000000000000000000000000000000000000000000000000600052602260045260246000fd5b6000600282049050600182168061123257607f821691505b60208210811415611246576112456111eb565b5b50919050565b600082825260208201905092915050565b7f6f6e6c792073656c6c65727320616e642061646d696e2068617665207468652060008201527f726967687420746f2064656c6973742061206c69737465642041737365740000602082015250565b60006112b9603e8361124c565b91506112c48261125d565b604082019050919050565b600060208201905081810360008301526112e8816112ac565b9050919050565b7f69662073746174757320213d206163746976655f302c207468656e2063616e2760008201527f742063616e63656c000000000000000000000000000000000000000000000000602082015250565b600061134b60288361124c565b9150611356826112ef565b604082019050919050565b6000602082019050818103600083015261137a8161133e565b9050919050565b7f70726963652063616e6e6f742062652030000000000000000000000000000000600082015250565b60006113b760118361124c565b91506113c282611381565b602082019050919050565b600060208201905081810360008301526113e6816113aa565b9050919050565b7f4e487b7100000000000000000000000000000000000000000000000000000000600052601160045260246000fd5b600061142782610dd9565b91507fffffffffffffffffffffffffffffffffffffffffffffffffffffffffffffffff82141561145a576114596113ed565b5b600182019050919050565b7f73656c6c65722063616e6e6f7420627579207468656972206f776e206173736560008201527f7400000000000000000000000000000000000000000000000000000000000000602082015250565b60006114c160218361124c565b91506114cc82611465565b604082019050919050565b600060208201905081810360008301526114f0816114b4565b9050919050565b7f4f6e6c79206163746976652070726f706572746965732063616e20626520626f60008201527f7567687400000000000000000000000000000000000000000000000000000000602082015250565b600061155360248361124c565b915061155e826114f7565b604082019050919050565b6000602082019050818103600083015261158281611546565b9050919050565b7f696e73756666696369656e742066756e64730000000000000000000000000000600082015250565b60006115bf60128361124c565b91506115ca82611589565b602082019050919050565b600060208201905081810360008301526115ee816115b2565b9050919050565b7f506c65617365206d616b65207375726520746869732070726f7065727479206960008201527f73206c6973746564000000000000000000000000000000000000000000000000602082015250565b600061165160288361124c565b915061165c826115f5565b604082019050919050565b6000602082019050818103600083015261168081611644565b9050919050565b7f4f6e6c792070726f70657274696573207769746820616e20616374697665207360008201527f74617475732063616e2062652073686f776e0000000000000000000000000000602082015250565b60006116e360328361124c565b91506116ee82611687565b604082019050919050565b60006020820190508181036000830152611712816116d6565b905091905056fea2646970667358221220bdc56a4d766df76f86d8b5d89ffe4b514b94becd38f6a340066a1dc21738bb0d64736f6c63430008090033",
  "immutableReferences": {},
  "source": "// SPDX-License-Identifier: MIT\r\npragma solidity ^0.8.9;\r\n//Visibilty modifiers\r\n//1-public : anyone can call them.\r\n//2-private: only called within a contract eg another function can call a provate func within a contract\r\n//3-internal: inheriting contracts can also call this function but not external contracts or functions\r\n//4-external: only external contracts/wallets can call it. not within the parent.\r\n//mappings cannot be external\r\ncontract Blockyards{\r\n\r\n    //EVENTS - used to ouput data externally after makings changes. \r\n    //event ASSET_GOT_LISTED(uint assetId, address seller, address token, uint assetId, uint price  );\r\n    //event ASSET_SOLD(uint listingId, address buyer, address token, uint assetId, uint price  );\r\n    //event ASSET_LISTING_CANCELLED(uint listingId, address seller);\r\n\r\n    address Admin;\r\n     //ENUMS- are statuses.\r\n    enum ListingStatus{active_0,sold_1,cancelled_2}   //options or states of the property/asset. they show as 0,1 or 2 in the blockchain, not by their actual names\r\n    //mappings are key value pairs.\r\n    mapping(uint => ASSET) private _listings;  //maps asset Id to Asset struct. \r\n    \r\n\r\n    constructor() {\r\n       Admin = msg.sender;                  //Admin will be the contract deployer address\r\n    }\r\n\r\n    uint private listingId = 0;\r\n\r\n    struct ASSET{\r\n        ListingStatus status;       //current state of the asset i.e {active,sold,cancelled}. \r\n        uint assetId;            //should be unique -11111\r\n        uint   price;               //in wei:  1 eth equals 1* 10^18 wei\r\n        address owner;              // owner in possession of the asset\r\n        string metadata;            //details about the property                \r\n        address seller;         //store who is selling, will show 0x0000. if not selling\r\n        //string History;                  //store asset history      \r\n    }\r\n\r\n    //modifiers are priveleged users of some functions\r\n    modifier isSeller(uint _assetId){\r\n        ASSET memory listing = _listings[_assetId];\r\n        //only seller or admin can delist\r\n        require(msg.sender == listing.seller || msg.sender == Admin, \"only sellers and admin have the right to delist a listed Asset\");\r\n        _;\r\n    }\r\n\r\n\r\n    //GETTER-FUNCTION-returns listing details acc to its assetId.\r\n    function get_listing(uint _assetId) public view returns(ASSET memory){\r\n        ASSET memory listing = _listings[_assetId];\r\n        require(listing.assetId != 0, \"Please make sure this property is listed\");\r\n        require(listing.status == ListingStatus.active_0, \"Only properties with an active status can be shown\");\r\n        return _listings[_assetId];\r\n    }\r\n\r\n    //FUNCTION-lists properties-emits listed_event\r\n    function listASSET(uint _assetId, uint _price, string memory _metadata ) external {\r\n        require(_price != 0, \"price cannot be 0\");\r\n        //passing parameters to fill the listing struct.\r\n        //listing here is a temporary variable of type ASSET.\r\n        ASSET memory listing = ASSET(ListingStatus.active_0, _assetId, _price, msg.sender, _metadata, msg.sender);\r\n        listingId++;                        //listing counter starts from 1 and increments further\r\n        _listings[_assetId] = listing;    //stores asset at the index acc to its assetId   \r\n    }\r\n\r\n    //FUNCTION-buys assets\r\n    function buyASSET(uint _assetId) external payable {\r\n        //storage means the listing variable is not temporary\r\n        ASSET storage listing = _listings[_assetId];\r\n        require(msg.sender != listing.seller, \"seller cannot buy their own asset\");\r\n        require(listing.status == ListingStatus.active_0, \"Only active properties can be bought\");\r\n        require(msg.value >= listing.price, \"insufficient funds\");\r\n        \r\n        payable(listing.seller).transfer(listing.price);        //payment\r\n        listing.owner = msg.sender;                             //buyer is the owner now\r\n        listing.status = ListingStatus.sold_1;    //status will be updated \r\n        listing.seller = 0x0000000000000000000000000000000000000000; //asset has no seller now\r\n    }\r\n\r\n    function delistASSET(uint _assetId) external isSeller(_assetId) {\r\n\r\n        ASSET storage listing = _listings[_assetId];\r\n        require(listing.status == ListingStatus.active_0, \"if status != active_0, then can't cancel\");\r\n        listing.status = ListingStatus.cancelled_2;     //listing status of asset set to 2nd state which is cancelled\r\n    }\r\n\r\n}",
  "sourcePath": "/home/runner/BlockchainRealEstate/src/contracts/Blockyards.sol",
  "compiler": {
    "name": "solc",
    "version": "0.8.9+commit.e5eed63a.Emscripten.clang"
  },
  "schemaVersion": "3.4.7",
  "updatedAt": "2022-06-18T19:51:00.627Z",
  "networkType": "ethereum",
  "devdoc": {
    "kind": "dev",
    "methods": {},
    "version": 1
  },
  "userdoc": {
    "kind": "user",
    "methods": {},
    "version": 1
  }
}