{
  "contractName": "RealtyChain",
  "abi": [
    {
      "inputs": [],
      "stateMutability": "payable",
      "type": "constructor",
      "payable": true
    },
    {
      "anonymous": false,
      "inputs": [
        {
          "indexed": false,
          "internalType": "string",
          "name": "assetId",
          "type": "string"
        },
        {
          "indexed": true,
          "internalType": "address",
          "name": "seller",
          "type": "address"
        },
        {
          "indexed": true,
          "internalType": "address",
          "name": "buyer",
          "type": "address"
        },
        {
          "indexed": false,
          "internalType": "uint256",
          "name": "price",
          "type": "uint256"
        },
        {
          "indexed": false,
          "internalType": "string",
          "name": "metadata",
          "type": "string"
        }
      ],
      "name": "AssetBought",
      "type": "event"
    },
    {
      "anonymous": false,
      "inputs": [
        {
          "indexed": false,
          "internalType": "string",
          "name": "assetId",
          "type": "string"
        },
        {
          "indexed": true,
          "internalType": "address",
          "name": "seller",
          "type": "address"
        },
        {
          "indexed": false,
          "internalType": "uint256",
          "name": "price",
          "type": "uint256"
        },
        {
          "indexed": false,
          "internalType": "string",
          "name": "metadata",
          "type": "string"
        }
      ],
      "name": "AssetDelisted",
      "type": "event"
    },
    {
      "anonymous": false,
      "inputs": [
        {
          "indexed": false,
          "internalType": "string",
          "name": "assetId",
          "type": "string"
        },
        {
          "indexed": true,
          "internalType": "address",
          "name": "seller",
          "type": "address"
        },
        {
          "indexed": false,
          "internalType": "uint256",
          "name": "price",
          "type": "uint256"
        },
        {
          "indexed": false,
          "internalType": "string",
          "name": "metadata",
          "type": "string"
        }
      ],
      "name": "AssetListed",
      "type": "event"
    },
    {
      "inputs": [
        {
          "internalType": "string",
          "name": "_assetId",
          "type": "string"
        }
      ],
      "name": "getListing",
      "outputs": [
        {
          "internalType": "bool",
          "name": "",
          "type": "bool"
        },
        {
          "components": [
            {
              "internalType": "enum RealtyChain.ListingStatus",
              "name": "status",
              "type": "uint8"
            },
            {
              "internalType": "string",
              "name": "assetId",
              "type": "string"
            },
            {
              "internalType": "uint256",
              "name": "price",
              "type": "uint256"
            },
            {
              "internalType": "address",
              "name": "owner",
              "type": "address"
            },
            {
              "internalType": "string",
              "name": "metadata",
              "type": "string"
            },
            {
              "internalType": "address",
              "name": "seller",
              "type": "address"
            }
          ],
          "internalType": "struct RealtyChain.Asset",
          "name": "",
          "type": "tuple"
        }
      ],
      "stateMutability": "view",
      "type": "function",
      "constant": true
    },
    {
      "inputs": [
        {
          "internalType": "string",
          "name": "_assetId",
          "type": "string"
        },
        {
          "internalType": "uint256",
          "name": "_price",
          "type": "uint256"
        },
        {
          "internalType": "string",
          "name": "_metadata",
          "type": "string"
        }
      ],
      "name": "listAsset",
      "outputs": [],
      "stateMutability": "nonpayable",
      "type": "function"
    },
    {
      "inputs": [
        {
          "internalType": "string",
          "name": "_assetId",
          "type": "string"
        }
      ],
      "name": "buyAsset",
      "outputs": [],
      "stateMutability": "payable",
      "type": "function",
      "payable": true
    },
    {
      "inputs": [
        {
          "internalType": "string",
          "name": "_assetId",
          "type": "string"
        }
      ],
      "name": "delistAsset",
      "outputs": [],
      "stateMutability": "nonpayable",
      "type": "function"
    },
    {
      "inputs": [],
      "name": "getAllAssetIds",
      "outputs": [
        {
          "internalType": "string[]",
          "name": "",
          "type": "string[]"
        }
      ],
      "stateMutability": "view",
      "type": "function",
      "constant": true
    }
  ],
  "bytecode": "0x6080604052335f806101000a81548173ffffffffffffffffffffffffffffffffffffffff021916908373ffffffffffffffffffffffffffffffffffffffff160217905550611ba0806100505f395ff3fe608060405260043610610049575f3560e01c80630f56add41461004d5780634ae9ec301461007557806377b5a549146100b2578063c7ef9672146100da578063e122f907146100f6575b5f80fd5b348015610058575f80fd5b50610073600480360381019061006e9190610ffe565b610120565b005b348015610080575f80fd5b5061009b60048036038101906100969190610ffe565b610567565b6040516100a9929190611230565b60405180910390f35b3480156100bd575f80fd5b506100d860048036038101906100d39190611288565b6107e2565b005b6100f460048036038101906100ef9190610ffe565b610a3d565b005b348015610101575f80fd5b5061010a610cba565b60405161011791906113cb565b60405180910390f35b805f6001826040516101329190611425565b90815260200160405180910390206040518060c00160405290815f82015f9054906101000a900460ff16600281111561016e5761016d61105f565b5b60028111156101805761017f61105f565b5b815260200160018201805461019490611468565b80601f01602080910402602001604051908101604052809291908181526020018280546101c090611468565b801561020b5780601f106101e25761010080835404028352916020019161020b565b820191905f5260205f20905b8154815290600101906020018083116101ee57829003601f168201915b5050505050815260200160028201548152602001600382015f9054906101000a900473ffffffffffffffffffffffffffffffffffffffff1673ffffffffffffffffffffffffffffffffffffffff1673ffffffffffffffffffffffffffffffffffffffff16815260200160048201805461028390611468565b80601f01602080910402602001604051908101604052809291908181526020018280546102af90611468565b80156102fa5780601f106102d1576101008083540402835291602001916102fa565b820191905f5260205f20905b8154815290600101906020018083116102dd57829003601f168201915b50505050508152602001600582015f9054906101000a900473ffffffffffffffffffffffffffffffffffffffff1673ffffffffffffffffffffffffffffffffffffffff1673ffffffffffffffffffffffffffffffffffffffff168152505090508060a0015173ffffffffffffffffffffffffffffffffffffffff163373ffffffffffffffffffffffffffffffffffffffff1614806103e257505f8054906101000a900473ffffffffffffffffffffffffffffffffffffffff1673ffffffffffffffffffffffffffffffffffffffff163373ffffffffffffffffffffffffffffffffffffffff16145b610421576040517f08c379a000000000000000000000000000000000000000000000000000000000815260040161041890611518565b60405180910390fd5b5f6001846040516104329190611425565b908152602001604051809103902090505f60028111156104555761045461105f565b5b815f015f9054906101000a900460ff1660028111156104775761047661105f565b5b146104b7576040517f08c379a00000000000000000000000000000000000000000000000000000000081526004016104ae906115a6565b60405180910390fd5b6002815f015f6101000a81548160ff021916908360028111156104dd576104dc61105f565b5b0217905550806005015f9054906101000a900473ffffffffffffffffffffffffffffffffffffffff1673ffffffffffffffffffffffffffffffffffffffff167fc4c986f07ead2074a2dc63d0dc3b4642191b0af509ef4e53266a01ccd845ab5f8260010183600201548460040160405161055993929190611666565b60405180910390a250505050565b5f610570610e41565b5f6001846040516105819190611425565b9081526020016040518091039020600101805461059d90611468565b9050116001846040516105b09190611425565b9081526020016040518091039020806040518060c00160405290815f82015f9054906101000a900460ff1660028111156105ed576105ec61105f565b5b60028111156105ff576105fe61105f565b5b815260200160018201805461061390611468565b80601f016020809104026020016040519081016040528092919081815260200182805461063f90611468565b801561068a5780601f106106615761010080835404028352916020019161068a565b820191905f5260205f20905b81548152906001019060200180831161066d57829003601f168201915b5050505050815260200160028201548152602001600382015f9054906101000a900473ffffffffffffffffffffffffffffffffffffffff1673ffffffffffffffffffffffffffffffffffffffff1673ffffffffffffffffffffffffffffffffffffffff16815260200160048201805461070290611468565b80601f016020809104026020016040519081016040528092919081815260200182805461072e90611468565b80156107795780601f1061075057610100808354040283529160200191610779565b820191905f5260205f20905b81548152906001019060200180831161075c57829003601f168201915b50505050508152602001600582015f9054906101000a900473ffffffffffffffffffffffffffffffffffffffff1673ffffffffffffffffffffffffffffffffffffffff1673ffffffffffffffffffffffffffffffffffffffff1681525050905091509150915091565b5f8203610824576040517f08c379a000000000000000000000000000000000000000000000000000000000815260040161081b906116f3565b60405180910390fd5b5f6040518060c001604052805f60028111156108435761084261105f565b5b81526020018581526020018481526020013373ffffffffffffffffffffffffffffffffffffffff1681526020018381526020013373ffffffffffffffffffffffffffffffffffffffff168152509050806001856040516108a39190611425565b90815260200160405180910390205f820151815f015f6101000a81548160ff021916908360028111156108d9576108d861105f565b5b021790555060208201518160010190816108f3919061189c565b50604082015181600201556060820151816003015f6101000a81548173ffffffffffffffffffffffffffffffffffffffff021916908373ffffffffffffffffffffffffffffffffffffffff1602179055506080820151816004019081610959919061189c565b5060a0820151816005015f6101000a81548173ffffffffffffffffffffffffffffffffffffffff021916908373ffffffffffffffffffffffffffffffffffffffff160217905550905050600284908060018154018082558091505060019003905f5260205f20015f9091909190915090816109d4919061189c565b508060a0015173ffffffffffffffffffffffffffffffffffffffff167f281f4d9c4b32c7807fbe76488ada2ca7bcb3191e44197007e31f56fd123c3cce826020015183604001518460800151604051610a2f939291906119a3565b60405180910390a250505050565b5f600182604051610a4e9190611425565b90815260200160405180910390209050806005015f9054906101000a900473ffffffffffffffffffffffffffffffffffffffff1673ffffffffffffffffffffffffffffffffffffffff163373ffffffffffffffffffffffffffffffffffffffff1603610aef576040517f08c379a0000000000000000000000000000000000000000000000000000000008152600401610ae690611a56565b60405180910390fd5b5f6002811115610b0257610b0161105f565b5b815f015f9054906101000a900460ff166002811115610b2457610b2361105f565b5b14610b64576040517f08c379a0000000000000000000000000000000000000000000000000000000008152600401610b5b90611ae4565b60405180910390fd5b8060020154341015610bab576040517f08c379a0000000000000000000000000000000000000000000000000000000008152600401610ba290611b4c565b60405180910390fd5b610bb58133610d8e565b806005015f9054906101000a900473ffffffffffffffffffffffffffffffffffffffff1673ffffffffffffffffffffffffffffffffffffffff166108fc826002015490811502906040515f60405180830381858888f19350505050158015610c1f573d5f803e3d5ffd5b503373ffffffffffffffffffffffffffffffffffffffff16816005015f9054906101000a900473ffffffffffffffffffffffffffffffffffffffff1673ffffffffffffffffffffffffffffffffffffffff167f44b94cc21e4ff76ebc5922d7bbb0ca070a28d4e78db4a0f6399f1d5b90f70dbb83600101846002015485600401604051610cae93929190611666565b60405180910390a35050565b60606002805480602002602001604051908101604052809291908181526020015f905b82821015610d85578382905f5260205f20018054610cfa90611468565b80601f0160208091040260200160405190810160405280929190818152602001828054610d2690611468565b8015610d715780601f10610d4857610100808354040283529160200191610d71565b820191905f5260205f20905b815481529060010190602001808311610d5457829003601f168201915b505050505081526020019060010190610cdd565b50505050905090565b80826003015f6101000a81548173ffffffffffffffffffffffffffffffffffffffff021916908373ffffffffffffffffffffffffffffffffffffffff1602179055506001825f015f6101000a81548160ff02191690836002811115610df657610df561105f565b5b02179055505f826005015f6101000a81548173ffffffffffffffffffffffffffffffffffffffff021916908373ffffffffffffffffffffffffffffffffffffffff1602179055505050565b6040518060c001604052805f6002811115610e5f57610e5e61105f565b5b8152602001606081526020015f81526020015f73ffffffffffffffffffffffffffffffffffffffff168152602001606081526020015f73ffffffffffffffffffffffffffffffffffffffff1681525090565b5f604051905090565b5f80fd5b5f80fd5b5f80fd5b5f80fd5b5f601f19601f8301169050919050565b7f4e487b71000000000000000000000000000000000000000000000000000000005f52604160045260245ffd5b610f1082610eca565b810181811067ffffffffffffffff82111715610f2f57610f2e610eda565b5b80604052505050565b5f610f41610eb1565b9050610f4d8282610f07565b919050565b5f67ffffffffffffffff821115610f6c57610f6b610eda565b5b610f7582610eca565b9050602081019050919050565b828183375f83830152505050565b5f610fa2610f9d84610f52565b610f38565b905082815260208101848484011115610fbe57610fbd610ec6565b5b610fc9848285610f82565b509392505050565b5f82601f830112610fe557610fe4610ec2565b5b8135610ff5848260208601610f90565b91505092915050565b5f6020828403121561101357611012610eba565b5b5f82013567ffffffffffffffff8111156110305761102f610ebe565b5b61103c84828501610fd1565b91505092915050565b5f8115159050919050565b61105981611045565b82525050565b7f4e487b71000000000000000000000000000000000000000000000000000000005f52602160045260245ffd5b6003811061109d5761109c61105f565b5b50565b5f8190506110ad8261108c565b919050565b5f6110bc826110a0565b9050919050565b6110cc816110b2565b82525050565b5f81519050919050565b5f82825260208201905092915050565b5f5b838110156111095780820151818401526020810190506110ee565b5f8484015250505050565b5f61111e826110d2565b61112881856110dc565b93506111388185602086016110ec565b61114181610eca565b840191505092915050565b5f819050919050565b61115e8161114c565b82525050565b5f73ffffffffffffffffffffffffffffffffffffffff82169050919050565b5f61118d82611164565b9050919050565b61119d81611183565b82525050565b5f60c083015f8301516111b85f8601826110c3565b50602083015184820360208601526111d08282611114565b91505060408301516111e56040860182611155565b5060608301516111f86060860182611194565b50608083015184820360808601526112108282611114565b91505060a083015161122560a0860182611194565b508091505092915050565b5f6040820190506112435f830185611050565b818103602083015261125581846111a3565b90509392505050565b6112678161114c565b8114611271575f80fd5b50565b5f813590506112828161125e565b92915050565b5f805f6060848603121561129f5761129e610eba565b5b5f84013567ffffffffffffffff8111156112bc576112bb610ebe565b5b6112c886828701610fd1565b93505060206112d986828701611274565b925050604084013567ffffffffffffffff8111156112fa576112f9610ebe565b5b61130686828701610fd1565b9150509250925092565b5f81519050919050565b5f82825260208201905092915050565b5f819050602082019050919050565b5f6113448383611114565b905092915050565b5f602082019050919050565b5f61136282611310565b61136c818561131a565b93508360208202850161137e8561132a565b805f5b858110156113b9578484038952815161139a8582611339565b94506113a58361134c565b925060208a01995050600181019050611381565b50829750879550505050505092915050565b5f6020820190508181035f8301526113e38184611358565b905092915050565b5f81905092915050565b5f6113ff826110d2565b61140981856113eb565b93506114198185602086016110ec565b80840191505092915050565b5f61143082846113f5565b915081905092915050565b7f4e487b71000000000000000000000000000000000000000000000000000000005f52602260045260245ffd5b5f600282049050600182168061147f57607f821691505b6020821081036114925761149161143b565b5b50919050565b5f82825260208201905092915050565b7f4f6e6c792073656c6c65727320616e642061646d696e206861766520746865205f8201527f726967687420746f2064656c6973742061206c69737465642041737365740000602082015250565b5f611502603e83611498565b915061150d826114a8565b604082019050919050565b5f6020820190508181035f83015261152f816114f6565b9050919050565b7f49662073746174757320213d206163746976655f302c207468656e2063616e275f8201527f742063616e63656c000000000000000000000000000000000000000000000000602082015250565b5f611590602883611498565b915061159b82611536565b604082019050919050565b5f6020820190508181035f8301526115bd81611584565b9050919050565b5f819050815f5260205f209050919050565b5f81546115e281611468565b6115ec8186611498565b9450600182165f8114611606576001811461161c5761164e565b60ff19831686528115156020028601935061164e565b611625856115c4565b5f5b8381101561164657815481890152600182019150602081019050611627565b808801955050505b50505092915050565b6116608161114c565b82525050565b5f6060820190508181035f83015261167e81866115d6565b905061168d6020830185611657565b818103604083015261169f81846115d6565b9050949350505050565b7f50726963652063616e6e6f7420626520300000000000000000000000000000005f82015250565b5f6116dd601183611498565b91506116e8826116a9565b602082019050919050565b5f6020820190508181035f83015261170a816116d1565b9050919050565b5f6020601f8301049050919050565b5f82821b905092915050565b5f6008830261175b7fffffffffffffffffffffffffffffffffffffffffffffffffffffffffffffffff82611720565b6117658683611720565b95508019841693508086168417925050509392505050565b5f819050919050565b5f6117a061179b6117968461114c565b61177d565b61114c565b9050919050565b5f819050919050565b6117b983611786565b6117cd6117c5826117a7565b84845461172c565b825550505050565b5f90565b6117e16117d5565b6117ec8184846117b0565b505050565b5b8181101561180f576118045f826117d9565b6001810190506117f2565b5050565b601f82111561185457611825816115c4565b61182e84611711565b8101602085101561183d578190505b61185161184985611711565b8301826117f1565b50505b505050565b5f82821c905092915050565b5f6118745f1984600802611859565b1980831691505092915050565b5f61188c8383611865565b9150826002028217905092915050565b6118a5826110d2565b67ffffffffffffffff8111156118be576118bd610eda565b5b6118c88254611468565b6118d3828285611813565b5f60209050601f831160018114611904575f84156118f2578287015190505b6118fc8582611881565b865550611963565b601f198416611912866115c4565b5f5b8281101561193957848901518255600182019150602085019450602081019050611914565b868310156119565784890151611952601f891682611865565b8355505b6001600288020188555050505b505050505050565b5f611975826110d2565b61197f8185611498565b935061198f8185602086016110ec565b61199881610eca565b840191505092915050565b5f6060820190508181035f8301526119bb818661196b565b90506119ca6020830185611657565b81810360408301526119dc818461196b565b9050949350505050565b7f53656c6c65722063616e6e6f7420627579207468656972206f776e20617373655f8201527f7400000000000000000000000000000000000000000000000000000000000000602082015250565b5f611a40602183611498565b9150611a4b826119e6565b604082019050919050565b5f6020820190508181035f830152611a6d81611a34565b9050919050565b7f4f6e6c79206163746976652070726f706572746965732063616e20626520626f5f8201527f7567687400000000000000000000000000000000000000000000000000000000602082015250565b5f611ace602483611498565b9150611ad982611a74565b604082019050919050565b5f6020820190508181035f830152611afb81611ac2565b9050919050565b7f496e73756666696369656e742066756e647300000000000000000000000000005f82015250565b5f611b36601283611498565b9150611b4182611b02565b602082019050919050565b5f6020820190508181035f830152611b6381611b2a565b905091905056fea2646970667358221220ca39871457dd130bc9592f2e1e07cf6b18a709d392c537aeaf409123ee77d88564736f6c63430008150033",
  "immutableReferences": {},
  "source": "// SPDX-License-Identifier: UNLICENSED\npragma solidity ^0.8.21;\n\ncontract RealtyChain {\n    // Define the events\n    event AssetListed(string assetId, address indexed seller, uint price, string metadata);\n    event AssetBought(string assetId, address indexed seller, address indexed buyer, uint price, string metadata);\n    event AssetDelisted(string assetId, address indexed seller, uint price, string metadata);\n\n    // Define the listing status enum\n    enum ListingStatus { active_0, sold_1, cancelled_2 }\n\n    // Define the asset struct\n    struct Asset {\n        ListingStatus status;\n        string assetId;\n        uint price;\n        address owner;\n        string metadata;\n        address seller;\n    }\n\n    // Define contract admin and listings mapping\n    address private admin;\n    mapping(string => Asset) private listings;\n    string[] private assetIds;\n\n    // Define the seller modifier\n    modifier isSeller(string memory _assetId) {\n        Asset memory listing = listings[_assetId];\n        require(msg.sender == listing.seller || msg.sender == admin, \"Only sellers and admin have the right to delist a listed Asset\");\n        _;\n    }\n\n    constructor() payable {\n        admin = msg.sender;\n    }\n\n    function getListing(string memory _assetId) public view returns (bool, Asset memory) {\n        return (bytes(listings[_assetId].assetId).length > 0, listings[_assetId]);\n    }\n\n    function listAsset(string memory _assetId, uint _price, string memory _metadata) external {\n        require(_price != 0, \"Price cannot be 0\");\n\n        Asset memory listing = Asset(ListingStatus.active_0, _assetId, _price, msg.sender, _metadata, msg.sender);\n        listings[_assetId] = listing;\n        assetIds.push(_assetId);\n\n        emit AssetListed(listing.assetId, listing.seller, listing.price, listing.metadata);\n    }\n\n    function buyAsset(string memory _assetId) external payable {\n        Asset storage listing = listings[_assetId];\n        require(msg.sender != listing.seller, \"Seller cannot buy their own asset\");\n        require(listing.status == ListingStatus.active_0, \"Only active properties can be bought\");\n        require(msg.value >= listing.price, \"Insufficient funds\");\n\n        transferOwnership(listing, msg.sender);\n        payable(listing.seller).transfer(listing.price);\n\n        emit AssetBought(listing.assetId, listing.seller, msg.sender, listing.price, listing.metadata);\n    }\n\n    function delistAsset(string memory _assetId) external isSeller(_assetId) {\n        Asset storage listing = listings[_assetId];\n        require(listing.status == ListingStatus.active_0, \"If status != active_0, then can't cancel\");\n        listing.status = ListingStatus.cancelled_2;\n\n        emit AssetDelisted(listing.assetId, listing.seller, listing.price, listing.metadata);\n    }\n\n    function transferOwnership(Asset storage _listing, address _newOwner) private {\n        _listing.owner = _newOwner;\n        _listing.status = ListingStatus.sold_1;\n        _listing.seller = address(0);\n    }\n\n    function getAllAssetIds() public view returns (string[] memory) {\n        return assetIds;\n    }\n}\n",
  "sourcePath": "/workspaces/RealtyChain/contracts/RealtyChain.sol",
  "compiler": {
    "name": "solc",
    "version": "0.8.21+commit.d9974bed.Emscripten.clang"
  },
  "schemaVersion": "3.4.15",
  "updatedAt": "2023-08-27T10:47:14.851Z",
  "networkType": "ethereum",
  "devdoc": {
    "kind": "dev",
    "methods": {},
    "version": 1
  },
  "userdoc": {
    "kind": "user",
    "methods": {},
    "version": 1
  }
}